:0400000085EF00F098
:100008008347834783478347834783470F4780470F
:10001800FD4683478347834783478347834783470F
:100028008347834783478347834783478347834778
:100038008347834783478347834783478347C54528
:100048008347834783478347834783478347834758
:100058008347834783478347834783478347834748
:1000680003478347834783478347834783478347B8
:1000780049474E4769440C434200834783478347B7
:100088008347834783478347834783478347834718
:100098008347834783478347420083478347834790
:1000A8000947834783478347834783478347834772
:1000B80083478347834783478347834783478347E8
:1000C80083478347834783478347834783478347D8
:1000D80083478347834783478347834783478347C8
:1000E8004200834783478347834783478347834740
:1000F80083478347834783478347834783478347A8
:06010800FF0012EF8BF076
:10FEBA0000D015010000004413019C1D01421401E9
:10FECA00141A01000000000000000000C41601001E
:10FEDA000000300A010000000000000000000000DD
:10FEEA000000000000000000000000000000000008
:10FEFA0000000000000000000000000000000034C4
:10FF0A001201000000000000C41D01000000C01919
:10FF1A0001000000000000000000000000000000D6
:10FF2A0000000000000000000000000000000000C7
:10FF3A000000000000000000000000D01A01AE1A04
:10FF4A00018C1A01000000B8140100000000000032
:10FF5A00000000000000000000000000000000F2A5
:10FF6A001A010000006418010000000000000000EF
:10FF7A00004C1D01000000000102030405060708E9
:10FF8A000C1014182030400001020304050607086B
:10FF9A000C10141820304050010A50494331384699
:10FFAA00353751383420437572696F736974792013
:10FFBA004E616E6F2043414E2046442064656D6F4A
:10FFCA0020736B70616E672E636F2E756B203036EF
:10FFDA002F32330A0049443A2025782025782020F8
:10FFEA0020204C656E3A256420446174613A2000F1
:05FFFA00257820000045
:020000040001F9
:1000000020EE04F00F50D9261050DA22DF50136E84
:1000100020EE04F01150D9261250DA22134613466E
:10002000DF501318C30B1318DF6E20EE04F00F50CF
:10003000D9261050DA22DFB820EF80F024EF80F0CC
:10004000136A132A25EF80F0136A20EE04F0115092
:10005000D9261250DA22DF501318FE0B1318DF6E68
:1000600020EE04F00F50D9261050DA22DFBA3BEF11
:1000700080F03FEF80F0136A132A40EF80F0136A9C
:1000800020EE04F01150D9261250DA221346DF5028
:100090001318FD0B1318DF6E20EE04F00F50D92655
:1000A0001050DA22DFBC57EF80F05BEF80F0136A6C
:1000B000132A5CEF80F0136A20EE04F01150D92669
:1000C0001250DA2213321332DF5013187F0B131839
:1000D000DF6E20EE04F00F50D9261050DA22DFBE7A
:1000E00074EF80F078EF80F0136A132A79EF80F0D4
:1000F000136A20EE04F01150D9261250DA22133A76
:1001000013461346DF501318BF0B1318DF6E20EE93
:1001100001F00F50D9261050DA22DF50136E070E6F
:1001200013161350156E166A176A186A17C518F554
:1001300016C517F515C516F5156A0FC5D9F410C5FE
:10014000DAF4DF50136E1350151220EE04F0115044
:10015000D9261250DA22DFA0B0EF80F0B2EF80F0A3
:10016000F3EF80F0050ED890153616361736183690
:10017000E82EB3EF80F020EE03F00F50D926105098
:10018000DA22DF50136E1F0E13161350151217C507
:1001900018F516C517F515C516F5156A20EE02F007
:1001A0000F50D9261050DA22DF50136E135015125B
:1001B000050ED8901536163617361836E82ED9EFB4
:1001C00080F020EE01F00F50D9261050DA22DF50D7
:1001D000136ED8901332D8901332D89013321F0E6A
:1001E00013161350151211C5D9F412C5DAF415C53A
:1001F000DEF416C5DEF417C5DEF418C5DEF4000E15
:10020000196E18EF81F019500F24136E000E102094
:10021000146E080E1324D96E000E1420DA6E400EF0
:100220001924E16EE26A060EE222DFC4E7F4192A1D
:1002300020EE04F01150D9261250DA22DF30E832D5
:100240000F0BC8EC8DF0136E1350195CD8A02BEF78
:1002500081F02DEF81F003EF81F020EE05F01150D9
:10026000D9261250DA22400EDE6E060EDD6E120026
:100270001CC5D9F41DC5DAF4DEC423F5DEC424F5AB
:10028000DEC425F5DEC426F520EE04F01C50D92688
:100290001D50DA22DFA04FEF81F051EF81F08AEF9D
:1002A00081F020EE01F01A50D9261B50DA222338B3
:1002B000E842F80BF80BDF6E050E1E6ED890263262
:1002C0002532243223321E2E5EEF81F020EE02F022
:1002D0001A50D9261B50DA2223C5DFF424C523F592
:1002E00025C524F526C525F5266A20EE03F01A500B
:1002F000D9261B50DA2223501F0BDF6E050E1E6E0F
:10030000D89026322532243223321E2E80EF81F0FF
:100310009FEF81F020EE01F01A50D9261B50DA220F
:10032000DF6A20EE02F01A50D9261B50DA22DF6A6B
:1003300020EE03F01A50D9261B50DA22DF6A1AC5C4
:10034000D9F41BC5DAF423C5DFF424C523F525C58C
:1003500024F526C525F5266A23C51EF5070E1E16AB
:1003600020EE01F01A50D9261B50DA221E50DF125F
:1003700020EE04F01A50D9261B50DA2210EE04F0B9
:100380001C50E1261D50E222E730E8320F0B1E6EB2
:1003900010EE04F01C50E1261D50E222E7BCD3EF22
:1003A00081F0D7EF81F0800E1F6ED8EF81F01F6AC9
:1003B000800E1F1610EE04F01C50E1261D50E222A4
:1003C000E7BEE5EF81F0E9EF81F0400E206EEAEF45
:1003D00081F0206A400E201610EE04F01C50E12639
:1003E0001D50E222E7B2F7EF81F0FBEF81F0200E23
:1003F000216EFCEF81F0216A200E211610EE04F030
:100400001C50E1261D50E222E7B009EF82F00DEF0B
:1004100082F0226A222A0EEF82F0226A2238F00B42
:10042000100B211020101F101E10DF6E20EE04F0A4
:100430001C50D9261D50DA22DFB221EF82F023EFC3
:1004400082F044EF82F0080E1A240F6E000E1B207B
:10045000106E20EE05F01C50D9261D50DA22DEC4A5
:1004600011F5DDC412F520EE04F01C50D9261D5004
:10047000DA22DF30E8320F0BC8EC8DF01E6E1E5012
:10048000136E146A3AEC8BF012003DC5D9F43EC5E8
:10049000DAF4DEC4F6F4DDC4F7F4000EF86E0800FA
:1004A000F550250AD8A457EF82F059EF82F020EFDB
:1004B00083F03DC5D9F43EC5DAF4DE2A000EDD2214
:1004C000000E05018E6F000E8D6F8DC597F58F693B
:1004D00090693DC5D9F43EC5DAF4DEC4BEF5DDC48D
:1004E000BFF5BEC5F6F4BFC5F7F4000EF86E080000
:1004F000F550640AD8B47FEF82F081EF82F091EF7B
:1005000082F0BEC5F6F4BFC5F7F4000EF86E080021
:10051000F550690AD8A48FEF82F091EF82F0BFEF17
:1005200082F03FC5D9F440C5DAF4DFC441F5020ECC
:10053000DE26DFC442F5000EDD2241C5D9F442C5F6
:10054000DAF4DEC4BAF5DDC4BBF5010EBE25416E9A
:10055000000EBF21426E3DC5D9F43EC5DAF441C557
:10056000DEF442C5DDF43BC52BF53CC52CF5BAC520
:100570002DF5BBC52EF537EC83F036EF83F0BEC505
:10058000F6F4BFC5F7F4000EF86E0800F550780ACF
:10059000D8A4CDEF82F0CFEF82F017EF83F03FC504
:1005A000D9F440C5DAF4DFC441F5020EDE26DFC41B
:1005B00042F5000EDD2241C5D9F442C5DAF4DEC4AD
:1005C000BAF5DDC4BBF5010EBE25416E000EBF219C
:1005D000426E3DC5D9F43EC5DAF441C5DEF442C5EC
:1005E000DDF4FFEF82F03BC52BF53CC52CF5BAC519
:1005F0002DF5BBC52EF501EC84F036EF83F0BEC5BA
:10060000F6F4BFC5F7F4000EF86E0800F550416E21
:10061000426A4250000AD8B410EF83F017EF83F01B
:100620004150780AD8B4F3EF82F017EF83F03DC55C
:10063000D9F43EC5DAF4DE2A000EDD2236EF83F06F
:100640003DC5D9F43EC5DAF4DEC4F6F4DDC4F7F4F2
:10065000000EF86E0800F550106E116A3BC512F5D9
:100660003CC513F504EC87F017EF83F012002EBEA3
:100670003CEF83F03FEF83F0010E40EF83F0000E7C
:10068000356E3550D8B447EF83F049EF83F04DEF26
:1006900083F02D6C2E1ED8B02E2A050190BF55EF89
:1006A00083F053EF83F05BEF83F0000E326E010EA8
:1006B000316E5FEF83F08FC531F590C532F58DC592
:1006C00033F58EC534F53550D8B469EF83F06BEF50
:1006D00083F082EF83F03306D8A034063550D8A4D7
:1006E00074EF83F076EF83F07CEF83F0000E306ED2
:1006F0002B0E2F6E80EF83F0000E306E2D0E2F6EBE
:100700002FC535F5000E376E1F0E366E000EB76F13
:10071000BAEF83F03606D8A03706980E3624D96E85
:10072000050E3720DA6E2DC50EF52EC50FF5000E1D
:10073000116E0A0E106E24EC88F00EC514F50FC56C
:1007400015F5D4EC8BF01450300FDF6E3106D8A0C5
:1007500032063306D8A034062DC50EF52EC50FF58A
:10076000000E116E0A0E106E69EC87F00EC52DF5A5
:100770000FC52EF537BEC5EF83F0375008E13604BC
:10078000D8A0C5EF83F0C7EF83F0DDEF83F02D50E5
:100790002E10D8A4CEEF83F0D0EF83F08AEF83F051
:1007A00032BEDDEF83F0325006E13104D8B0DBEF2A
:1007B00083F0DDEF83F08AEF83F03550D8B4E3EFB8
:1007C00083F0E5EF83F0F0EF83F03606D8A037062C
:1007D000980E3624D96E050E3720DA6E35C5DFF453
:1007E0002BC520F52CC521F5980E3624226E050E5A
:1007F0003720236E33C524F534C525F5E4EC89F0A4
:100800001200050190BF09EF84F007EF84F00FEFAD
:1008100084F0000E376E010E366E13EF84F08FC534
:1008200036F590C537F58DC532F58EC533F5000E1A
:10083000396E1F0E386E000EB76F5BEF84F038060E
:10084000D8A039062D500F0B3A6E090E3A642BEFE3
:1008500084F02DEF84F035EF84F0570E3A24346E97
:10086000356A000E35223BEF84F0300E3A24346EA8
:10087000356A000E352234C53AF5980E3824D96E03
:10088000050E3920DA6E3AC5DFF43606D8A03706F1
:100890003206D8A033062DC52FF52EC530F5040E2F
:1008A000316ED89030322F32312E51EF84F02FC577
:1008B0002DF530C52EF539BE67EF84F0395009E1CA
:1008C000020E385CD8A067EF84F069EF84F07FEF08
:1008D00084F02D502E10D8A470EF84F072EF84F0C5
:1008E0001FEF84F037BE7FEF84F0375006E1360407
:1008F000D8B07DEF84F07FEF84F01FEF84F02BC53C
:1009000020F52CC521F5980E3824226E050E3920CD
:10091000236E32C524F533C525F5E4EC89F01200C9
:10092000176E000E186E17500C0D530EF324D96E6F
:10093000010EF420DA6EDF50146E050E156ED8909D
:100940001432152E9FEF84F01450070B166E20EE14
:1009500004F01250D9261350DA22DFAEB2EF84F041
:10096000B4EF84F0C7EF84F0010101B9BAEF84F06D
:10097000BCEF84F0C6EF84F0CEEC8EF0060AD8A46B
:10098000C4EF84F0C6EF84F0C7EF84F0188220EE45
:1009900004F01250D9261350DA22DF30E8320F0B60
:1009A000146E080E1464D7EF84F0D9EF84F0F1EFE1
:1009B00084F020EE04F01250D9261350DA22DFAC76
:1009C000E4EF84F0E6EF84F0F0EF84F0CEEC8EF00C
:1009D000060AD8A4EEEF84F0F0EF84F0F1EF84F093
:1009E00018801650C2EC8EF0146E20EE04F01250F7
:1009F000D9261350DA22DF30E8320F0BC8EC8DF025
:100A0000145CD8B006EF85F008EF85F009EF85F0AB
:100A1000188017500AEC8DF00009D8A412EF85F069
:100A200014EF85F016EF85F0030E1812185012001F
:100A3000000E176E000E116E000E156E000E166E73
:100A4000000E176E1750020DDF0EF324D96E050E3F
:100A5000F420DA6EDF50146E1450EEEC8DF0126E4E
:100A600012A035EF85F037EF85F092EF85F0145046
:100A7000AAEC8DF0156E12A640EF85F042EF85F0DE
:100A800046EF85F015C513F590EF85F014500C0D69
:100A9000550EF324D96E010EF420DA6EDF501F0BD1
:100AA000166E1750020DE00EF324D96E050EF420D9
:100AB000DA6EDE50165CD8B060EF85F062EF85F03C
:100AC00072EF85F01750020DE00EF324D96E050E7B
:100AD000F420DA6EDF50106E1050165C1524136E81
:100AE00090EF85F01750020DE00EF324D96E050E3D
:100AF000F420DA6E1650DE5CD8B081EF85F083EF1B
:100B000085F042EF85F01750020DE00EF324D96E08
:100B1000050EF420DA6EDF50106E1050165C136E66
:100B200013501126172A1750D8B499EF85F09BEF70
:100B300085F022EF85F011501200000EBE6E000EFF
:100B4000BF6E180EC06E000EC16E020EC26E000E99
:100B5000C36EC668C768E70EC86EFE0EC96E040E87
:100B6000CA6EF60ECB6E040100690869E70E106FBD
:100B7000FC0E186F040E206FF40E286F000E016F2C
:100B8000000E096F000E116F000E196F000E216F1D
:100B9000000E296F000E026F000E0A6F180E126F02
:100BA000000E1A6F000E226F000E2A6F03690B6988
:100BB00013691B69070E236F2B6904690C6914699B
:100BC0001C690F0E246F2C69000E0201896F000E44
:100BD000886F000E876F000E866F290E726F190ED8
:100BE0003D6F200E296F460E196F130E716F370E71
:100BF000146F140E706F380E156F000E0401056F20
:100C0000000E066F000E076F000E0D6F000E0E6FC8
:100C1000000E0F6F000E156F000E166F000E176F8F
:0E0C2000000E256F000E266F000E276F1200CB
:100C3000FAC403F5FBC404F54AEC8EF00009D8B4FD
:100C400024EF86F026EF86F02EEF86F0030E526E2C
:100C50000201979B13EC8CF076EF86F055EC8EF04A
:100C60000009D8B436EF86F038EF86F04AEF86F008
:100C700029EC8EF00009D8B440EF86F042EF86F000
:100C80004AEF86F0010E526E02019799D3EC8EF076
:100C900076EF86F034EC8EF00009D8B452EF86F08F
:100CA00054EF86F064EF86F029EC8EF00009D8B49A
:100CB0005CEF86F05EEF86F064EF86F0020E526E17
:100CC0000201979946EF86F03FEC8EF00009D8B408
:100CD0006CEF86F06EEF86F074EF86F0030E526EC6
:100CE0000201979D76EF86F0020197995250D8B491
:100CF0007CEF86F07EEF86F08CEF86F002D88CEFEA
:100D000086F00500FA6E05017551FD6E7651FE6E96
:100D10007751FF6EFA50120004C5FBF403C5FAF4D4
:100D20001100236E000E1F6E1A50EEEC8DF0226E35
:100D300022A09DEF86F09FEF86F002EF87F01A5019
:100D40000C0D580EF324D96E010EF420DA6EDEC4B9
:100D500020F5DDC421F520502110D8B4B2EF86F083
:100D6000B4EF86F002EF87F020C50FF521C510F52E
:100D70001BC511F51CC512F500EC80F01A500C0DC6
:100D8000510EF324D96E010EF420DA6E000EDB80D2
:100D90002350020DE00EF324D96E050EF420DA6E16
:100DA000DF2A1A50AAEC8DF01D6E2350020DE00EC2
:100DB000F324D96E050EF420DA6E1D50DE5CD8A047
:100DC000E4EF86F0E6EF86F0EFEF86F02350020DB9
:100DD000E00EF324D96E050EF420DA6EDF6A22A647
:100DE000F4EF86F0F6EF86F000EF87F01A500C0D66
:100DF000540EF324D96E010EF420DA6EF70EDF16CE
:100E0000010E1F6E1F50120012501310D8B40BEFBA
:100E100087F00DEF87F016EF87F012501310D8A46B
:100E200014EF87F016EF87F01BEF87F010509BEC64
:100E30008DF068EF87F020EE0AF01250D92613509B
:100E4000DA22DE50DE10D8B428EF87F02AEF87F0E0
:100E500045EF87F020EE0AF01250D9261350DA221F
:100E600010EE03F01250E1261350E222DE50E65C51
:100E7000E650800A186EDE50800A1858D8B043EF4A
:100E800087F045EF87F068EF87F020EE03F012500F
:100E9000D9261350DA22DEC414F5DDC415F512C5C7
:100EA000D9F413C5DAF4DEC416F5DDC417F5145011
:100EB0001624D96E15501720DA6E10C5DFF420EE17
:100EC00003F01250D9261350DA22DE2A000EDD225A
:100ED0001200000E136E11BE72EF87F070EF87F0F4
:100EE00078EF87F0106C111ED8B0112A010E136E26
:100EF0000FBE7FEF87F07DEF87F085EF87F00E6CF8
:100F00000F1ED8B00F2A010E131A000E156E000E18
:100F1000146E10501110D8B490EF87F092EF87F054
:100F2000BAEF87F0010E126E9AEF87F0D890103664
:100F30001136122A11AE9FEF87F0A1EF87F096EFDE
:100F400087F0D8901436153610500E5C11500F589B
:100F5000D8A0ADEF87F0AFEF87F0B4EF87F0105077
:100F60000E5E11500F5A1480D89011321032122E8A
:100F7000A1EF87F01350D8B4C0EF87F0C2EF87F02D
:100F8000C6EF87F0146C151ED8B0152A14C50EF5DF
:100F900015C50FF5120018EC85F00009D8B4D3EF91
:100FA00087F0D5EF87F023EF88F0D60E246E050E7C
:100FB000256E62EC8BF0D6C5D0F5D7C5D1F5D8C576
:100FC000D2F5D9C5D3F50501DA31E8320F0BD5ECEE
:100FD0008DF00501D46FDF0EC66FFF0EC76FD2C54F
:100FE000C8F5D3C5C9F5D0C5CAF5D1C5CBF5D4C5AB
:100FF000CCF5CD6B1EEC8DF0000E0501D56F14EF16
:1010000088F0FA0EC66FFF0EC76FD551DB25D96E7B
:10101000000EDC21DA6EDF50456E4550C86FC96B9B
:101020001EEC8DF00501D52BD451D55DD8A01BEF5A
:1010300088F01DEF88F001EF88F0DD0EC66FFF0E1F
:10104000C76F1EEC8DF01200000E136E0FBE2DEF59
:1010500088F02BEF88F033EF88F00E6C0F1ED8B0BD
:101060000F2A010E136E11BE3AEF88F038EF88F0A8
:101070003EEF88F0106C111ED8B0112A10501110DC
:10108000D8B445EF88F047EF88F06BEF88F0010E99
:10109000126E4FEF88F0D89010361136122A11AE2A
:1010A00054EF88F056EF88F04BEF88F010500E5C4C
:1010B00011500F58D8A05FEF88F061EF88F065EF0E
:1010C00088F010500E5E11500F5AD8901132103225
:1010D000122E56EF88F01350D8B471EF88F073EFEA
:1010E00088F077EF88F00E6C0F1ED8B00F2A0EC56F
:1010F0000EF50FC50FF51200B9EC8DF0000E0501CD
:10110000926F000E916F000EDE6F000EDE25D96E1D
:10111000DA6A060EDA22DF6ADE2B3F0EDE6593EF17
:1011200088F095EF88F085EF88F0D68ED68CE40EA7
:101130000E6E1D0E0F6E010E106EA6EC8EF0A30E3D
:101140000501C66FFF0EC76F1EEC8DF0CBEC87F06C
:101150000501925109E1650E915DD8A0B2EF88F0CA
:10116000B4EF88F0A6EF88F0000E926F000E916F3A
:1011700090EC8AF0C3B6BFEF88F0C2EF88F0010EA2
:10118000C3EF88F0000EFF0A0501DD6FDD47DD4784
:10119000DD47C350DD19F70BDD19C36EA6EF88F0EC
:1011A00085EF00F002019BA5D8EF88F0DAEF88F018
:1011B000E5EF88F09AA5DFEF88F0E1EF88F0E5EF42
:1011C00088F032EC8DF019EF89F09BAFEAEF88F0F0
:1011D000ECEF88F007EF89F09AAFF1EF88F0F3EFCA
:1011E00088F007EF89F05150D8B4F9EF88F0FBEFA1
:1011F00088F003EF89F0000E516E9A919A9FCAEC25
:101200008CF019EF89F0D3EC8EF0E1EF88F09BA31E
:101210000CEF89F00EEF89F019EF89F09AA313EF24
:1012200089F015EF89F019EF89F0F6EC8EF00201E4
:101230009A931100000E0201A16F000EA26F000E22
:10124000A36F000EA46F000EA56F000EA66F000E18
:10125000A76F000EA86F000EA96F000EAA6FB00E48
:10126000AB6F800EAC6F080EAD6F560EAE6F000EFA
:10127000AF6F200EB06F000EB16F800EB26F000E18
:10128000B36F000E0E6E000E0F6E000E106E68EC47
:101290008DF0000E0E6E000E0F6E000E106E57ECED
:1012A0008DF0000E0E6E000E0F6E000E106E46ECEE
:1012B0008DF0000E0501946F000E936F1200D68A18
:1012C000000ED6BE010E116ED69E550E0401596F4A
:1012D000AA0E596F5991000E5F6F000E5E6F080ED7
:1012E0005D6F550E596FAA0E596F598111B002D01A
:1012F000D69E01D0D68E0301628D628F658F698183
:10130000698369856987AF90D680100E0E6E1E0EB8
:101310000F6E010E106EBBEC8EF0B490D682120EE2
:101320000E6E1E0E0F6E010E106EB4EC8EF0B890A5
:10133000D684140E0E6E1E0E0F6E010E106EADECE6
:101340008EF012000F6E000E0E6ECEEC8EF0040AC0
:10135000D8B4ADEF89F0AFEF89F0C0EF89F00F049A
:10136000D8B4B5EF89F0B7EF89F0C0EF89F0040E7B
:101370000F18D8A4BEEF89F0C0EF89F0E0EF89F034
:10138000010103510F18F80B0F18036FD3EF89F009
:101390001DA9CDEF89F0CFEF89F0D3EF89F0020ED0
:1013A0000E6EE2EF89F00239E832070B0F18D8A46D
:1013B000DCEF89F0DEEF89F0C8EF89F0E2EF89F029
:1013C000010E0E6E0E50120025BEE9EF89F0EBEF14
:1013D00089F0F1EF89F024C529F525C52AF5F5EF47
:1013E00089F0000E2A6E000E296E000E286E000E87
:1013F000276E07EF8AF0000E116E200E106E20C5CA
:1014000012F521C513F504EC87F0274A282A295044
:10141000275C2850800A266E2A50800A2658D8A0B9
:1014200014EF8AF016EF8AF0FBEF89F022C519F568
:1014300023C51AF520C51BF521C51CF5B2EC8BF0B0
:1014400012002C6E27C512F528C513F52C5090EC10
:1014500084F0296E2950D8A430EF8AF032EF8AF058
:101460005BEF8AF02C500C0D580EF324D96E010E50
:10147000F420DA6EDEC42AF5DDC42BF52A502B10D9
:10148000D8B445EF8AF047EF8AF05BEF8AF02AC5BF
:101490001AF52BC51BF527C51CF528C51DF538EC1D
:1014A00081F02C500C0D510EF324D96E010EF42056
:1014B000DA6E030EDF121200040E0201946F800E2A
:1014C000956F080E966F010E9E6F000E9A6F000EBC
:1014D0009B6F000E976F000E8C6F000E8D6F4F0E7E
:1014E0009D6F000E9F6F60EC8EF002019B919B95AB
:1014F000948F030EE82EFED700F000F000F000F00D
:1015000000F000F000F002019A919A959B85080E78
:101510000E6E1E0E0F6E010E106E79EC8DF0120025
:10152000B8C500F60501B9510601016F0501B84BB8
:10153000B92B328E3C0E3212328C32923290000E27
:101540002E6E010E2F6E000E306E000E316E000EEC
:10155000336E060E346E000E0AEC8DF02D6E2DA04B
:10156000B4EF8AF0B6EF8AF0BDEF8AF02E0E276E48
:10157000050E286E000E21EC8AF01200C2C543F55C
:10158000C3C544F5D2EF8AF0C0C53BF5C1C53CF5F3
:10159000430E3D6E050E3E6EC4C53FF5C5C540F514
:1015A00045EC82F043C5F6F444C5F7F4000EF86E3E
:1015B0000800F5500009D8A4E0EF8AF0E2EF8AF0C5
:1015C000C4EF8AF0000E0501C16F000EC06F12005B
:1015D0000101018F040E036F900E026F040EA2EC46
:1015E00089F00009D8A4F7EF8AF0F9EF8AF011EF3B
:1015F0008BF0000E01014C6F380E4D6F870E016F9E
:10160000600E006F029702894EEC8CF06AEC8EF04F
:1016100074EC8EF0B3EC8CF0F5EC8CF0000EA2ECD8
:1016200089F01200060EF66E1E0EF76E010EF86EB1
:101630000900F5C4DFF50900F5C4E0F501EE00F29C
:10164000800EEE6AE806FDE101EE60F15A0EEE6AE8
:10165000E806FDE101EE46F10D0EEE6AE806FDE159
:101660000401080E5D6F000E5E6F000E5F6F0001DB
:101670007CEF88F011C517F512C518F50FC515F5E3
:1016800010C516F554EF8BF017C5D9F418C5DAF468
:10169000DF50196E174A182A15C5D9F416C5DAF4A1
:1016A00019C5DFF4154A162A1306D8A01406132804
:1016B00006E11428D8A45FEF8BF061EF8BF044EFC4
:1016C0008BF01200000E276E2750020DDF0EF32460
:1016D000D96E050EF420DA6EDF501A6E24C51BF5A4
:1016E00025C51CF5275091EC86F0266E2650D8B4FF
:1016F0007CEF8BF07EEF8BF080EF8BF089EF8BF03F
:10170000272A2750D8B487EF8BF089EF8BF064EF4E
:101710008BF01200FAC40CF5FBC40DF5B19E050167
:1017200096510301196F95C518F3050169516A11A6
:101730006B11D8B49EEF8BF0A0EF8BF0ADEF8BF078
:1017400002D8ADEF8BF00500FA6E6951FD6E6A515B
:10175000FE6E6B51FF6EFA5012000DC5FBF40CC506
:10176000FAF41100000E1F6E000E1E6EC3EF8BF018
:101770001DC510F5116A1BC512F51CC513F504EC47
:1017800087F01E4A1F2A1E501924D96E1F501A2096
:10179000DA6EDF501D6E1D50D8A4D1EF8BF0D3EF61
:1017A0008BF0B8EF8BF0120015BEE1EF8BF0155007
:1017B00006E11404D8B0DFEF8BF0E1EF8BF0EFEF30
:1017C0008BF014C516F515C517F5161E171E164A0B
:1017D000172A16C514F517C515F5F3EF8BF014C5C8
:1017E00014F515C515F512000F6E000E0E6E040EE1
:1017F0000F60FDEF8BF0FFEF8BF011EF8CF00F50CF
:101800000C0D500EF324D96E010EF420DA6E010196
:10181000DFAE0DEF8CF00FEF8CF011EF8CF0010EBE
:101820000E6E0E501200EAEC8EF0D8EC8EF088ECC2
:101830008EF0DDEC8EF00201949F7EEC8EF00201C2
:101840009B919B95948F030EE82EFED700F000F03D
:1018500000F000F000F000F000F002019A919A957B
:101860009B851200F80E0301196F300E186F610E80
:101870001B6F1951116E18510501956F11C596F521
:10188000160E0E6E1E0E0F6E010E106EA6EC8EF072
:10189000B19EA18E900E03011A6F12000F0E01016E
:1018A000046F0F0E056F3E0E066F000E076F030EDE
:1018B000086F030E096F0E0E0A6F000E0B6F000EFD
:1018C0000C6F0F0E0D6F020E0E6F000E0F6F1200D9
:1018D0000501725173117411D8B471EF8CF073EF6C
:1018E0008CF080EF8CF002D880EF8CF00500FA6E5F
:1018F0007251FD6E7351FE6E7451FF6EFA501200FC
:10190000120005016F5170117111D8B48AEF8CF07B
:101910008CEF8CF099EF8CF002D899EF8CF00500E9
:10192000FA6E6F51FD6E7051FE6E7151FF6EFA507E
:101930001200120005016C516D116E11D8B4A3EFA5
:101940008CF0A5EF8CF0B2EF8CF002D8B2EF8CF0F7
:101950000500FA6E6C51FD6E6D51FE6E6E51FF6E9C
:10196000FA501200120001018051E00B0109806F52
:10197000000E8C6F000E8D6F000E8E6F000E8F6F3D
:10198000000E906F000E916F000E926F400E936FDD
:10199000808F12004F505010D8B4D1EF8CF0D3EF9D
:1019A0008CF0D9EF8CF04FC501F550C502F5C8ECAD
:1019B0008EF0D8804734E6EC8EF0F9EC8EF0120011
:1019C000000E0E6E0201B0ABE8EF8CF0EAEF8CF087
:1019D000F3EF8CF0ABABEFEF8CF0F1EF8CF0F3EFBB
:1019E0008CF0010E0E6E0E501200000E0E6E0E5098
:1019F000020DE00EF324D96E050EF420DA6EDF6AD4
:101A00000E2A0E50D8B407EF8DF009EF8DF0F7EFE6
:101A10008CF01200116E000E106E1150F4EC8BF071
:101A20000009D8B416EF8DF018EF8DF01CEF8DF093
:101A30001150E2EC8DF0106E10501200C80E05012E
:101A4000CE6F050ECF6F000EC06F000EC16FC6C502
:101A5000C2F5C7C5C3F5CE0EC46F050EC56FBEEC8B
:101A60008AF01200000E466E000E486E4768000EA7
:101A7000496E000E4A6E000E4D6E000E4E6EEAEC80
:101A80008EF0D8EC8EF0DDEC8EF012000E500F10C0
:101A90001010D8B44EEF8DF050EF8DF056EF8DF062
:101AA0000EC560F50FC561F510C562F512000E5048
:101AB0000F101010D8B45FEF8DF061EF8DF067EF6D
:101AC0008DF00EC563F50FC564F510C565F5120000
:101AD0000E500F101010D8B470EF8DF072EF8DF023
:101AE00078EF8DF00EC566F50FC567F510C568F582
:101AF00012000E500F101010D8B481EF8DF083EF4C
:101B00008DF089EF8DF00EC575F50FC576F510C512
:101B100077F51200200E0001AD6F000EAF6F000EC2
:101B2000B36F020EB16F000EB06F000EAC6F000EFF
:101B30000401586F12000F6EE0EC8CF00009D8B46D
:101B4000A4EF8DF0A6EF8DF09CEF8DF00F50E2EC3E
:101B50008EF012000F6E0F500C0D530EF324D96E41
:101B6000010EF420DA6EDF500E6E1F0E0E160E28D8
:101B700012008AEC8DF09DEC85F0E8EC8AF05CECCC
:101B80008AF032EC8CF01AEC89F05FEC89F01200EC
:101B90000E6E910E0E24F66EF76AFF0EF722F86AAB
:101BA000000EF8220800F55012000E6E810E0E2471
:101BB000F66EF76AFF0EF722F86A000EF8220800A8
:101BC000F55012000E6E0E500C0D540EF324D96E0B
:101BD000010EF420DA6EDF50010B12000E6E0E5073
:101BE0000C0D540EF324D96E010EF420DA6EDF5082
:101BF000090B1200FAC406F5FBC407F5AF9068ECB8
:101C00008CF007C5FBF406C5FAF41100FAC408F518
:101C1000FBC409F5B49081EC8CF009C5FBF408C550
:101C2000FAF41100FAC40AF5FBC40BF5B8909AEC6B
:101C30008CF00BC5FBF40AC5FAF4110001011DADCF
:101C400024EF8EF026EF8EF027EF8EF01D9DAE9CD8
:101C50001100020195BB2FEF8EF032EF8EF0010ED6
:101C600033EF8EF0000E1200020198B73AEF8EF0BB
:101C70003DEF8EF0010E3EEF8EF0000E12000201DD
:101C800097BD45EF8EF048EF8EF0010E49EF8EF0D4
:101C9000000E1200020197BB50EF8EF053EF8EF052
:101CA000010E54EF8EF0000E1200020198A75BEFB8
:101CB0008EF05EEF8EF0010E5FEF8EF0000E1200E0
:101CC000A584A586A580A58202019B859B839B8F09
:101CD00097811200800E0101506F040E516F600E4B
:101CE000526FE80E536F1200000E01015C6F040E7C
:101CF0005D6F000E5E6FF00E5F6F1200A584A5860B
:101D0000A580A58202019B859B839B8F97811200F2
:101D1000A594A596A590A592000E02019B6F000EBA
:101D2000976F1200FCEC8EF04DC5D9F44EC5DAF475
:101D3000DF6E4D4A4E2A110049C5D9F44AC5DAF47E
:101D4000494A4A2ADF50EEEC8EF011000EC569F5C3
:101D50000FC56AF510C56BF512000EC56CF50FC501
:101D60006DF510C56EF512000EC56FF50FC570F557
:101D700010C571F512000EC572F50FC573F510C5CB
:101D800074F512000F6E0F50080FC8EC8DF01200A2
:101D9000025002018D6F01C58CF21200010102395F
:101DA000E832070B1200F6EC8EF002019587120064
:101DB0000201979B979D97991200000E0201996F5F
:101DC000998512000E6E0EC5A3F21200016E01C5B8
:101DD0008FF21200000E02019A6F1200056E05C507
:101DE0008BF212000501914B922B12000201949D7F
:0E1DF00012000201948B120002018A511200AF
:0A1E000007EC8FF011000100120042
:0C1E0C001100120012001200120012005F
:020000040020DA
:10000000FFFFFFFFFFFFFFFFFFFFFFFFFFFFFFFF00
:10001000FFFFFFFFFFFFFFFFFFFFFFFFFFFFFFFFF0
:10002000FFFFFFFFFFFFFFFFFFFFFFFFFFFFFFFFE0
:10003000FFFFFFFFFFFFFFFFFFFFFFFFFFFFFFFFD0
:020000040030CA
:10000000FAEFFFFF9FFFFFFFFFFFFFFFFFFFFFFF75
:10001000FFFFFFFFFFFFFFFFFFFFFFFFFFFFFFFFF0
:03002000FFFFFFE0
:00000001FF
